:020000040000FA
:100000009E31002E8A01AC298A018801911C1A2890
:1000100091105E205C205A20582021008C1720006F
:10002000A30B0832A10803190032A2012008A30083
:1000300021008C13911E0132B220090020005F3094
:10004000FF0020308400850138205030FF00A030B0
:1000500084003820850A2F20850A2F20850A5030F9
:10006000FF002030840038205030FF00A030840092
:100070008001840AFF0BFC3308000030A5003230F9
:100080008400850188201A00A50A36300402031D69
:10009000F93308000030A5003230840085011200D9
:1000A000A6009220A50A36300402031DF83308008A
:1000B0002E3005322C3003322A30013228308400B1
:1000C000003085001300000403190800013080028D
:1000D000840A0301803B080020002D082E0408003C
:1000E00020002B082C040800200029082A040800FE
:1000F000200027082804080005300332413001326F
:100100001930F70000000000F70BFC330800A500D1
:1001100025082300910015139513151413082000CA
:100120000800A500250823009100200026082300D0
:1001300093001513951315158B138B1BFD33553039
:100140009600AA30960095149518FE3315118B175A
:1001500020000800311908002F0823009A00200011
:100160003115080023001D080639031D0532190842
:100170002000B000B11408001908B0011D121D11B3
:100180009D101D1620000800F8002200A00A220879
:100190001F39A20A263E84000130850078088000BD
:1001A0002000080022007810A00803190A327814F1
:1001B000A00323081F39A30A263E840001308500CE
:1001C0000008200008002200A001A301A2012000D5
:1001D000080022002008200008002200210820003A
:1001E0000800F8002200A10A24081F39A40A463E8C
:1001F000840001308500780880002000080022007B
:10020000A10803190232A103A40320000800220060
:100210007810A10803190A327814A10325081F39A0
:10022000A50A463E84000130850000082000080031
:100230002100A008031907322000A708031D03327C
:1002400080152100A001D220781C0800F80005309C
:10025000A7002100A008031D0532DD307802031934
:1002600020141832A0180632DD307802031D8629CA
:10027000A0141032210020190F32A301A201211570
:100280002000330821007802031D21112015780871
:10029000A400A30620000800201A0C32A11520009B
:1002A000340821007802031DA11120167808A5004A
:1002B000A306F033201B0F322208A63E8400003034
:1002C00085007808A3068000A20A04302202031DDC
:1002D000E1332017DF3378082302031D1732A630DD
:1002E000840000308500AA3086000030870004308A
:1002F000F80012001E00F80BFC33A1142114211D7C
:100300002110A11D2110A00120000800A001E32858
:1003100001300430F800AE30860000308700003035
:100320001E00F80BFD33200008002000FA013408FD
:10033000FA06F1203308FA06F12021000430F90012
:10034000AE308600003087001600FA06F120F90B67
:10035000FB337A08F12088298831D9208131640063
:100360002000200032080B00B629AF292000A90880
:10037000031DB529C4217808A90022000C08A03962
:1003800079048C002000B5292408D121F800A40AA2
:100390002408D121F900A40A7804031D0800A4014F
:1003A000F3330B00C83402340A34003432340134DD
:1003B0000A340034963402340A34003432340134BE
:1003C0000A340034643402340A34003432340134E0
:1003D0000A340034323402340A3400343234013402
:1003E0000A340034323402340A34003464340134C0
:1003F0000A340034323402340A340034963401347E
:100400000A340034323402340A340034C83401343B
:100410000A340034323402340A340034963401345D
:100420000A340034323402340A340034643401347F
:100430000A340034323402340A34003432340134A1
:100440000A340034643402340A340034323401345F
:100450000A340034963402340A340034323401341D
:040460000034003430
:1010000081319521883108002100A1102118023278
:10101000200008002000AA30860000308700AE3093
:101020008400003085001600F800F039031D1332EB
:1010300078080F390B0008007F320800080008000C
:101040000800080008000800080008000800080060
:10105000080008000800803C031D133278080F398F
:101060000B000800623208000800080008000800B1
:101070000800080008000800080008000800080030
:1010800008007808F039203C031D0D32F8190800DB
:10109000073078050B000800080008000800080069
:1010A0000800080008007808F039B03C031D0D3234
:1010B000F8190800073078050B0008000800080040
:1010C000080008000800080008007808F039903C83
:1010D000031D13320F3078050B00080008000800CC
:1010E00008009F28A3280800080008000100A7287E
:1010F000080008000800080008007808F039A03C43
:10110000031D03320F3078050B000800AD28B3280B
:101110000800080008000800080008000800B928B6
:101120000800080008000800080001300102031848
:101130006F331600B200D42832081A00002880311C
:101140004A208831D42880313D208831D428FF308E
:10115000A60080319120883101001600B300803153
:101160004A20883100281600B40080314A20883196
:101170000028F9017908C220003803190800D52099
:10118000F90AF8330B0044344D34463445342034E6
:1011900042346C3469346E346B34653472342034C8
:1011A00035340A3400340800FF308031F1208831B2
:1011B0000800210095179512951115149514151511
:1011C0002100F03099001730970024008C1623007E
:1011D00000308C0000308D0020004F309C007D30AE
:1011E0009B002100911480311E20883164008031E1
:1011F0003D208831200000308D0000308C0021001F
:10120000A0308C00FF308D00640020006430A0000E
:101210000130A3006430AD0064000B178B17080089
:103C00009E270427FF3A031D0B322A30FE262A3056
:103C1000FE26A001A101A501A601462712260D2717
:103C200080310228AC10AA01A801AD01DE262C10BB
:103C3000ED26F8003A307802031D03320130AA0065
:103C4000F633AA080319F43330307802031CEB333F
:103C50003A307802031C0A3241307802031CE33305
:103C6000473078020318DF330730F8023030F802AB
:103C70002C180432780EAB002C14DA337808AB071A
:103C80002A0807390B00CF330632113214321732AB
:103C90001D322532C83341302B02031C03322B3036
:103CA000FE26132E2B08A700AD07AA0A172E2B08F5
:103CB000A400AD07FA332B08A300AD07F6332B0899
:103CC000A900AD07A7080319AA0AEF332B081A00A9
:103CD000AD07A80A28082702031D172EE633F801AE
:103CE0002D0878022B02031903322D30FE26132EE5
:103CF0002908F839031D183229080B000B32063247
:103D000013321232093210320F320E32AC18CD2675
:103D10002A30FE2E96260532DE261200A60012005C
:103D2000A5002A30FE26132E3D30FC33250826043C
:103D3000031D0800A436A30C1E302402031808003B
:103D4000AC1C0D3224082102031D0832E03020058E
:103D5000F800E0302305780203190A32CD26230843
:103D6000E039A0002408A100FF30E03A2305A200BA
:103D7000DE262235003E8600213087002808F90023
:103D80002836A20712001E00F90BFC33AC142030B9
:103D9000220203190232031C0800E32651270030D7
:103DA000840021308500E3262C2709180632E326FB
:103DB0001F27091C6327E8267A27462F80308400B6
:103DC000213085000800403086002130870008003F
:103DD000003086002130870008002000911EFD334E
:103DE00023001D080639031D0332190820000800AE
:103DF00019081D121D119D101D16EF33111EFE33E3
:103E000023009A00200008002300FF3091001513C2
:103E1000951315141308200008002300FF309100AB
:103E20000030930015139513151555309600AA30E0
:103E3000960095149518FE331511200008002030C7
:103E4000F9001600FF3C031D003416003F3C031D23
:103E50000034F90BF63301342030F9001200F7007A
:103E60001200F8003F3C031D0632770A031D03329F
:103E700016001600083216007702031D00341600E3
:103E80007802031D0034F90BE9330134E826AC1045
:103E90002030F900FF301E003F301E00F90BFA33CE
:103EA00008007227151395172030F900151400002B
:103EB000000013081E0014081E00F90B0232200037
:103EC0000800910AF3337227951715131516151567
:103ED00055309600AA309600951400000000151188
:103EE0002000080021082300920020002008230061
:103EF0009100080072279517151315159516203097
:103F0000F900160093001600940011081F3A1F399B
:103F10000319093255309600AA3096009514000016
:103F20000000910AEE33951255309600AA309600A3
:103F300095140000000015112000080021009517BD
:103F400095129511151495141515F0309900173028
:103F5000970024008C16230000308C0000308D0068
:103F6000200000308D0000308C002100A0308C003B
:103F7000FF308D00230008309F00CF309B000030C1
:103F80009C0024309E0090309D0020008B13080080
:020000040001F9
:08000000010000000D000100E9
:08E00000000001000200000015
:02E1FE0000001F
:02000E00A42F1D
:02001000FF1FD0
:00000001FF
